S01900006669726D776172652F6669726D776172652E7372656322
S11300006F00400093000000130100009301000002
S11300101302000093020000130300009303000086
S1130020130400009304000013050000930500006E
S11300301306000093060000130700009307000056
S1130040130800009308000013090000930900003E
S1130050130A0000930A0000130B0000930B000026
S1130060130C0000930C0000130D0000930D00000E
S1130070130E0000930E0000130F0000930F0000F6
S113008037810000130101FFEF000006B7070040AD
S113009003A507001375F50F67800000B70700403C
S11300A023A0A700678000003707004083470500AE
S11300B063940700678000002320F70013051500F0
S11300C06FF0DFFEB70600401307A00083A7060009
S11300D01305150093F7F70FA30FF5FEE398E7FE5A
S11300E0A30F05FE6780000037050000130101FF20
S11300F01305051023261100EFF01FFB6F0000000D
S11301000D48656C6C6F21576F726C640A000000B7
S11301104743433A2028474E552920382E322E3063
S107012000000000D7
S9030000FC
