S01900006669726D776172652F6669726D776172652E7372656322
S113000037050000130505023706001083050500B7
S1130010638A05002320B600130515006FF01FFF47
S11300206F7200009305E0022320B6002320B6007F
S1130030B70001FF938000F037110F0F1301F1F0A7
S1130040B3E12000B70E10FF938EFEF0130E2000D4
S11300506392D14BB710F00F938000FF37F1F0F0AB
S11300601301010FB3E12000B70EF1FF938E0EFFD1
S1130070130E30006390D149B700FF009380F00F56
S113008037110F0F1301F1F0B3E12000B71EFF0F7A
S1130090938EFEFF130E4000639ED145B7F00FF020
S11300A09380F00037F1F0F01301010FB3E1200069
S11300B0B7FEFFF0938EFE0F130E5000639CD143E6
S11300C0B70001FF938000F037110F0F1301F1F017
S11300D0B3E02000B70E10FF938EFEF0130E600005
S11300E0639AD041B70001FF938000F037110F0FDE
S11300F01301F1F033E12000B70E10FF938EFEF0F0
S1130100130E70006318D13FB70001FF938000F015
S1130110B3E01000B70E01FF938E0EF0130E8000B3
S1130120639AD03D13020000B70001FF938000F0F2
S113013037110F0F1301F1F0B3E120001383010015
S11301401302120093022000E31052FEB70E10FFB8
S1130150938EFEF0130E9000631ED3391302000039
S1130160B710F00F938000FF37F1F0F01301010F87
S1130170B3E12000130000001383010013021200F6
S113018093022000E31E52FCB70EF1FF938E0EFF84
S1130190130EA0006310D33713020000B700FF0052
S11301A09380F00F37110F0F1301F1F0B3E120002A
S11301B01300000013000000138301001302120057
S11301C093022000E31C52FCB71EFF0F938EFEFF28
S11301D0130EB0006310D33313020000B70001FF05
S11301E0938000F037110F0F1301F1F0B3E12000F9
S11301F01302120093022000E31252FEB70E10FF06
S1130200938EFEF0130EC0006396D12F13020000EC
S1130210B710F00F938000FF37F1F0F01301010FD6
S113022013000000B3E12000130212009302200027
S1130230E31052FEB70EF1FF938E0EFF130ED000A3
S1130240639AD12B13020000B700FF009380F00FD4
S113025037110F0F1301F1F0130000001300000019
S1130260B3E120001302120093022000E31E52FCAB
S1130270B71EFF0F938EFEFF130EE000639CD12781
S113028013020000B70001FF938000F01300000088
S113029037110F0F1301F1F0B3E120001302120024
S11302A093022000E31052FEB70E10FF938EFEF06F
S11302B0130EF0006390D12513020000B710F00F65
S11302C0938000FF1300000037F1F0F01301010FD9
S11302D013000000B3E12000130212009302200077
S11302E0E31E52FCB70EF1FF938E0EFF130E0001B6
S11302F06392D12113020000B700FF009380F00F36
S1130300130000001300000037110F0F1301F1F068
S1130310B3E120001302120093022000E31E52FCFA
S1130320B71EFF0F938EFEFF130E10016394D11DB1
S11303301302000037110F0F1301F1F0B70001FF92
S1130340938000F0B3E12000130212009302200016
S1130350E31252FEB70E10FF938EFEF0130E20012F
S1130360639AD1191302000037F1F0F01301010F61
S1130370B710F00F938000FF13000000B3E12000DA
S11303801302120093022000E31052FEB70EF1FF95
S1130390938E0EFF130E3001639ED11513020000DD
S11303A037110F0F1301F1F0B700FF009380F00F26
S11303B01300000013000000B3E120001302120038
S11303C093022000E31E52FCB71EFF0F938EFEFF24
S11303D0130E40016390D1131302000037110F0F65
S11303E01301F1F013000000B70001FF938000F047
S11303F0B3E120001302120093022000E31052FE26
S1130400B70E10FF938EFEF0130E50016394D10FBC
S11304101302000037F1F0F01301010F1300000084
S1130420B710F00F938000FF13000000B3E1200029
S11304301302120093022000E31E52FCB70EF1FFD8
S1130440938E0EFF130E60016396D10B130200000E
S113045037110F0F1301F1F0130000001300000017
S1130460B700FF009380F00FB3E1200013021200E5
S113047093022000E31E52FCB71EFF0F938EFEFF73
S1130480130E70016398D107B70001FF938000F049
S113049033611000B70E01FF938E0EF0130E80012E
S11304A0631AD105B700FF009380F00F33E1000019
S11304B0B70EFF00938EFE0F130E9001631CD10341
S11304C0B3600000930E0000130EA0016394D003E8
S11304D0B710111193801011372122221301212208
S11304E033E02000930E0000130EB0016314D0011A
S11304F0631AC00337050010930550041306200542
S11305009306F0041307A0002320B5002320C500A0
S11305102320C5002320D5002320C5002320E50087
S113052073001000370500109305F0041306B0049F
S11305309306A0002320B5002320C5002320D50066
S11305406F00007737050000130545563706001085
S113055083050500638A05002320B60013051500F2
S11305606FF01FFF786F72009305E0022320B6003E
S11305702320B600B70001FF938000F037110F0F5E
S11305801301F1F0B3C12000B7FE0FF0938EFE000B
S1130590130E20006390D14BB710F00F938000FF2F
S11305A037F1F0F01301010FB3C12000B70E01FFC2
S11305B0938E0EF0130E3000639ED147B700FF00F8
S11305C09380F00F37110F0F1301F1F0B3C1200026
S11305D0B71EF00F938E0EFF130E4000639CD1459F
S11305E0B7F00FF09380F00037F1F0F01301010F32
S11305F0B3C12000B70EFF00938EFE0F130E500000
S1130600639AD143B70001FF938000F037110F0FB5
S11306101301F1F0B3C02000B7FE0FF0938EFE007B
S1130620130E60006398D041B70001FF938000F07F
S113063037110F0F1301F1F033C12000B7FE0FF093
S1130640938EFE00130E70006316D13FB70001FFB6
S1130650938000F0B3C01000930E0000130E8000CE
S1130660639AD03D13020000B70001FF938000F0AD
S113067037110F0F1301F1F0B3C1200013830100F0
S11306801302120093022000E31052FEB7FE0FF093
S1130690938EFE00130E9000631ED33913020000E4
S11306A0B710F00F938000FF37F1F0F01301010F42
S11306B0B3C12000130000001383010013021200D1
S11306C093022000E31E52FCB70E01FF938E0EF03E
S11306D0130EA0006310D33713020000B700FF000D
S11306E09380F00F37110F0F1301F1F0B3C1200005
S11306F01300000013000000138301001302120012
S113070093022000E31C52FCB71EF00F938E0EFFE1
S1130710130EB0006310D33313020000B70001FFBF
S1130720938000F037110F0F1301F1F0B3C12000D3
S11307301302120093022000E31252FEB7FE0FF0E0
S1130740938EFE00130EC0006396D12F1302000097
S1130750B710F00F938000FF37F1F0F01301010F91
S113076013000000B3C12000130212009302200002
S1130770E31052FEB70E01FF938E0EF0130ED0005D
S1130780639AD12B13020000B700FF009380F00F8F
S113079037110F0F1301F1F01300000013000000D4
S11307A0B3C120001302120093022000E31E52FC86
S11307B0B71EF00F938E0EFF130EE000639CD1273B
S11307C013020000B70001FF938000F01300000043
S11307D037110F0F1301F1F0B3C1200013021200FF
S11307E093022000E31052FEB7FE0FF0938EFE003A
S11307F0130EF0006390D12513020000B710F00F20
S1130800938000FF1300000037F1F0F01301010F93
S113081013000000B3C12000130212009302200051
S1130820E31E52FCB70E01FF938E0EF0130E00016F
S11308306392D12113020000B700FF009380F00FF0
S1130840130000001300000037110F0F1301F1F023
S1130850B3C120001302120093022000E31E52FCD5
S1130860B71EF00F938E0EFF130E10016394D11D6B
S11308701302000037110F0F1301F1F0B70001FF4D
S1130880938000F0B3C120001302120093022000F1
S1130890E31252FEB7FE0FF0938EFE00130E2001FA
S11308A0639AD1191302000037F1F0F01301010F1C
S11308B0B710F00F938000FF13000000B3C12000B5
S11308C01302120093022000E31052FEB70E01FF40
S11308D0938E0EF0130E3001639ED11513020000A7
S11308E037110F0F1301F1F0B700FF009380F00FE1
S11308F01300000013000000B3C120001302120013
S113090093022000E31E52FCB71EF00F938E0EFFDD
S1130910130E40016390D1131302000037110F0F1F
S11309201301F1F013000000B70001FF938000F001
S1130930B3C120001302120093022000E31052FE00
S1130940B7FE0FF0938EFE00130E50016394D10F87
S11309501302000037F1F0F01301010F130000003F
S1130960B710F00F938000FF13000000B3C1200004
S11309701302120093022000E31E52FCB70E01FF83
S1130980938E0EF0130E60016396D10B13020000D8
S113099037110F0F1301F1F01300000013000000D2
S11309A0B700FF009380F00FB3C1200013021200C0
S11309B093022000E31E52FCB71EF00F938E0EFF2D
S11309C0130E70016398D107B70001FF938000F004
S11309D033411000B70E01FF938E0EF0130E800109
S11309E0631AD105B700FF009380F00F33C10000F4
S11309F0B70EFF00938EFE0F130E9001631CD103FC
S1130A00B3400000930E0000130EA0016394D003C2
S1130A10B7101111938010113721222213012122C2
S1130A2033C02000930E0000130EB0016314D001F4
S1130A30631AC003370500109305500413062005FC
S1130A409306F0041307A0002320B5002320C5005B
S1130A502320C5002320D5002320C5002320E50042
S1130A6073001000370500109305F0041306B0045A
S1130A709306A0002320B5002320C5002320D50021
S1130A806F00C0200B4000080B6000066F004000A0
S1130A909300000013010000930100001302000002
S1130AA093020000130300009303000013040000EA
S1130AB093040000130500009305000013060000D2
S1130AC093060000130700009307000013080000BA
S1130AD0930800001309000093090000130A0000A2
S1130AE0930A0000130B0000930B0000130C00008A
S1130AF0930C0000130D0000930D0000130E000072
S1130B00930E0000130F0000930F00009300803E2B
S1130B100BE0000A6F7080049300803E0BE0000A33
S1130B206F3010039300803E0BE0000A6F40802E6C
S1130B309300803E0BE0000A6F7040109300803EEB
S1130B400BE0000A6F30503E9300803E0BE0000A39
S1130B506F30004C9300803E0BE0000A6F80C00FA2
S1130B609300803E0BE0000A6F5010739300803EA8
S1130B700BE0000A6F60C0569300803E0BE0000A51
S1130B806F5010249300803E0BE0000A6F20D024A5
S1130B909300803E0BE0000A6F2040779300803E74
S1130BA00BE0000A6F1090299300803E0BE0000ACE
S1130BB06F30D04F9300803E0BE0000A6F50403EF0
S1130BC09300803E0BE0000A6F50406A9300803E21
S1130BD00BE0000A6F6050319300803E0BE0000A86
S1130BE06F00801D9300803E0BE0000A6F20505C74
S1130BF09300803E0BE0000A6F3050029300803E69
S1130C000BE0000A6F80100D9300803E0BE0000A99
S1130C106F6010079300803E0BE0000A6F30D079BC
S1130C209300803E0BE0000A6F0080689300803ED2
S1130C300BE0000A6F60401A9300803E0BE0000A4C
S1130C406F70D0379300803E0BE0000A6F10D04DD8
S1130C509300803E0BE0000A6F7040609300803E7A
S1130C600BE0000A6F0010099300803E0BE0000ABD
S1130C706F00505C9300803E0BE0000A6F40D05D33
S1130C809300803E0BE0000A6FF0DF8B9300803E00
S1130C900BE0000A6F4080789300803E0BE0000A6E
S1130CA06F1000389300803E0BE0000A6FF04FB5E0
S1130CB09300803E0BE0000A6F80402E9300803E3C
S1130CC00BE0000A6F20C00F9300803E0BE0000A87
S1130CD06F80D02F9300803E0BE0000A6F40401FCE
S1130CE09300803E0BE0000A6F70C0029300803EC8
S1130CF00BE0000A6F30001C9300803E0BE0000AFA
S1130D006F70505F9300803E0BE0000A6F10907587
S1130D109300803E0BE0000A6F5010429300803E27
S1130D200BE0000A6F50900437010200B7C1ADDE3A
S1130D309381F1EE138201003705001093054004FE
S1130D401306F0049306E004130750049307A0006D
S1130D502320B5002320C5002320D5002320E5004F
S1130D602320F50037050020B7D55B07938555D1BF
S1130D702320B500730010003305B502678000001E
S1130D803315B502678000003325B5026780000083
S1130D903335B502678000003345B5026780000033
S1130DA03355B502678000003365B50267800000E3
S1130DB03375B5026780000037150000130585DD23
S1130DC03706001083050500638A05002320B6005A
S1130DD0130515006FF01FFF736800009305E00210
S1130DE02320B6002320B60097900000938000F3E0
S1130DF01301A00A2390200083910000930EA00AFF
S1130E00130E2000639ED14597900000938000F15B
S1130E1037B1FFFF130101A023912000839120002B
S1130E20B7BEFFFF938E0EA0130E3000639AD1431A
S1130E3097900000938080EE3711EFBE130101AA52
S1130E402392200083A14000B71EEFBE938E0EAA0A
S1130E50130E40006396D14197900000938000ECFC
S1130E6037A1FFFF1301A1002393200083916000A9
S1130E70B7AEFFFF938EAE00130E50006392D13FC6
S1130E8097900000938060EA1301A00A239D20FE3E
S1130E908391A0FF930EA00A130E60006392D13DCC
S1130EA097900000938060E837B1FFFF130101A021
S1130EB0239E20FE8391C0FFB7BEFFFF938E0EA03A
S1130EC0130E7000639ED139979000009380E0E583
S1130ED037110000130101AA239F20FE8391E0FF34
S1130EE0B71E0000938E0EAA130E8000639AD137AA
S1130EF097900000938060E337A1FFFF1301A100E6
S1130F002390200083910000B7AEFFFF938EAE00C4
S1130F10130E90006396D13597900000938000E102
S1130F203751341213018167138200FE2310220209
S1130F3083910000B75E0000938E8E67130EA000AD
S1130F406390D13397900000938040DE37310000E6
S1130F50130181099380B0FFA3932000179200002E
S1130F601302E2DC83110200B73E0000938E8E0967
S1130F70130EB0006396D12F130EC00013020000AD
S1130F80B7D0FFFF9380D0CD17910000130101D992
S1130F902310110083110100B7DEFFFF938EDECD15
S1130FA06390D12D1302120093022000E31A52FC25
S1130FB0130ED00013020000B7C0FFFF9380D0CC03
S1130FC017910000130181D51300000023111100B3
S1130FD083112100B7CEFFFF938EDECC6392D1291B
S1130FE01302120093022000E31852FC130EE000D7
S1130FF013020000B7C0FFFF9380C0BC179100002C
S11310001301C1D1130000001300000023121100CA
S113101083114100B7CEFFFF938ECEBC6392D125DE
S11310201302120093022000E31652FC130EF00088
S113103013020000B7B0FFFF9380C0BB1300000091
S113104017910000130181CD231311008311610056
S1131050B7BEFFFF938ECEBB6394D121130212005F
S113106093022000E31852FC130E00011302000047
S1131070B7B0FFFF9380B0AB1300000017910000DE
S11310801301C1C91300000023141100831181004E
S1131090B7BEFFFF938EBEAB6394D11D1302120043
S11310A093022000E31652FC130E100113020000F9
S11310B0B7E0FFFF9380B0AA130000001300000004
S11310C017910000130181C5231511008311A1009C
S11310D0B7EEFFFF938EBEAA6394D11913021200D8
S11310E093022000E31652FC130E200113020000A9
S11310F017910000130181C2B720000093803023B0
S11311002310110083110100B72E0000938E3E239B
S11311106398D1151302120093022000E31A52FCC3
S1131120130E30011302000017910000130101BFD8
S1131130B710000093803022130000002311110027
S113114083112100B71E0000938E3E22639AD111B1
S11311501302120093022000E31852FC130E400104
S11311601302000017910000130141BBB7100000E7
S113117093802012130000001300000023121100BA
S113118083114100B71E0000938E2E12639AD10D75
S11311901302120093022000E31652FC130E5001B6
S11311A01302000017910000130141B7130000005F
S11311B0930020112313110083116100930E201159
S11311C06390D10B1302120093022000E31C52FC23
S11311D0130E60011302000017910000130101B403
S11311E013000000930010011300000023141100E9
S11311F083118100930E10016394D107130212002E
S113120093022000E31A52FC130E70011302000033
S113121017910000130181B01300000013000000B7
S1131220B730000093801000231511008311A10032
S1131230B73E0000938E1E006394D1031302120084
S113124093022000E31652FC37C500001305F5EEA7
S113125097950000938585AC2393A500631AC0037A
S11312603705001093055004130620059306F00477
S11312701307A0002320B5002320C5002320C500A8
S11312802320D5002320C5002320E500730010008F
S1131290370500109305F0041306B0049306A0006C
S11312A02320B5002320C5002320D5006FF09F9391
S11312B0371500001305052D3706001083050500BA
S11312C0638C05002320B600130515006FF01FFF83
S11312D0616E6469000000009305E0022320B600FB
S11312E02320B600B70001FF938000F093F1F0F0E3
S11312F0B70E01FF938E0EF0130E20006394D11BE2
S1131300B710F00F938000FF93F1000F930E000FBE
S1131310130E30006398D119B700FF009380F00FCB
S113132093F1F070930EF000130E4000639CD117FC
S1131330B7F00FF09380F00093F1000F930E0000CC
S1131340130E50006390D117B70001FF938000F093
S113135093F0000F930E0000130E60006394D015F9
S113136013020000B710F00F938000FF93F1F070A8
S1131370138301001302120093022000E31452FEAF
S1131380930E0070130E7000631ED311130200003D
S1131390B700FF009380F00F93F1000F13000000DB
S11313A0138301001302120093022000E31252FE81
S11313B0930E000F130E80006316D30F1302000068
S11313C0B7F00FF09380F00093F1F0F013000000F9
S11313D01300000013830100130212009302200083
S11313E0E31052FEB7FE0FF0938EFE00130E900032
S11313F0631AD30B13020000B710F00F938000FFA1
S113140093F1F0701302120093022000E31652FECF
S1131410930E0070130EA0006396D109130200000E
S1131420B700FF009380F00F1300000093F1000F4A
S11314301302120093022000E31452FE930E000FD5
S1131440130EB0006390D10713020000B7F00FF041
S11314509380F000130000001300000093F1F0707B
S11314601302120093022000E31252FE930EF000C6
S1131470130EC0006398D1039370000F930E000005
S1131480130ED0006390D003B700FF009380F00FD9
S113149013F0F070930E0000130EE0006314D001FB
S11314A0631AC00337050010930550041306200582
S11314B09306F0041307A0002320B5002320C500E1
S11314C02320C5002320D5002320C5002320E500C8
S11314D073001000370500109305F0041306B004E0
S11314E09306A0002320B5002320C5002320D500A7
S11314F06FF0CFF337150000130545513706001080
S113150083050500638A05002320B6001305150032
S11315106FF01FFF737562009305E0022320B6008D
S11315202320B6009300000013010000B381204083
S1131530930E0000130E20006396D14B930010000D
S113154013011000B3812040930E0000130E3000ED
S1131550639AD1499300300013017000B381204095
S1131560930EC0FF130E4000639ED147930000000A
S11315703781FFFFB3812040B78E0000130E500067
S11315806392D147B700008013010000B38120406B
S1131590B70E0080130E60006396D145B70000803B
S11315A03781FFFFB3812040B78E0080130E700097
S11315B0639AD14393000000378100001301F1FFC7
S11315C0B3812040B78EFFFF938E1E00130E800060
S11315D0639AD141B70000809380F0FF13010000AB
S11315E0B3812040B70E0080938EFEFF130E90004F
S11315F0639AD13FB70000809380F0FF37810000E9
S11316001301F1FFB3812040B78EFF7F130EA000BA
S1131610639AD13DB7000080378100001301F1FFC8
S1131620B3812040B78EFF7F938E1E00130EB0004F
S1131630639AD13BB70000809380F0FF3781FFFFAE
S1131640B3812040B78E0080938EFEFF130EC0003E
S1131650639AD139930000001301F0FFB381204055
S1131660930E1000130ED000639ED1379300F0FF49
S113167013011000B3812040930EE0FF130EE0002D
S11316806392D1379300F0FF1301F0FFB381204040
S1131690930E0000130EF0006396D1359300D00032
S11316A01301B000B3802040930E2000130E0001FC
S11316B0639AD0339300E0001301B00033812040DB
S11316C0930E3000130E1001631ED1319300D0002D
S11316D0B3801040930E0000130E20016394D031A8
S11316E0130200009300D0001301B000B381204026
S11316F0138301001302120093022000E31452FE2C
S1131700930E2000130E3001631ED32D130200002C
S11317109300E0001301B000B381204013000000E7
S1131720138301001302120093022000E31252FEFD
S1131730930E3000130E40016316D32B13020000E6
S11317409300F0001301B000B381204013000000A7
S113175013000000138301001302120093022000FF
S1131760E31052FE930E4000130E5001631CD32766
S1131770130200009300D0001301B000B381204095
S11317801302120093022000E31652FE930E20006F
S1131790130E60016398D125130200009300E0004A
S11317A01301B00013000000B381204013021200A3
S11317B093022000E31452FE930E3000130E7001C6
S11317C06392D123130200009300F0001301B000D0
S11317D01300000013000000B38120401302120024
S11317E093022000E31252FE930E4000130E800178
S11317F0639AD11F130200009300D000130000006D
S11318001301B000B38120401302120093022000A0
S1131810E31452FE930E2000130E90016394D11D25
S1131820130200009300E000130000001301B00055
S113183013000000B3812040130212009302200021
S1131840E31252FE930E3000130EA001639CD119D3
S1131850130200009300F0001300000013000000C6
S11318601301B000B3812040130212009302200040
S1131870E31252FE930E4000130EB0016394D1178D
S1131880130200001301B0009300D000B381204084
S11318901302120093022000E31652FE930E20005E
S11318A0130EC0016390D115130200001301B000A0
S11318B09300E00013000000B381204013021200E3
S11318C093022000E31452FE930E3000130ED00155
S11318D0639AD111130200001301B0009300F000C9
S11318E01300000013000000B38120401302120013
S11318F093022000E31252FE930E4000130EE00107
S11319006392D10F130200001301B0001300000012
S11319109300D000B38120401302120093022000F0
S1131920E31452FE930E2000130EF001639CD10BBE
S1131930130200001301B000130000009300E00044
S113194013000000B3812040130212009302200010
S1131950E31252FE930E3000130E00026394D10979
S1131960130200001301B000130000001300000074
S11319709300F000B3812040130212009302200070
S1131980E31252FE930E4000130E1002639CD10525
S1131990930010FF33011040930EF000130E200249
S11319A06312D1059300000233810040930E0002BC
S11319B0130E30026318D103B3000040930E0000ED
S11319C0130E40026390D003930000011301E00161
S11319D033802040930E0000130E50026314D00194
S11319E0631AC0033705001093055004130620053D
S11319F09306F0041307A0002320B5002320C5009C
S1131A002320C5002320D5002320C5002320E50082
S1131A1073001000370500109305F0041306B0049A
S1131A209306A0002320B5002320C5002320D50061
S1131A306FF08FA337250000130545A53706001066
S1131A4083050500638A05002320B60013051500ED
S1131A506FF01FFF736C6C009305E0022320B60047
S1131A602320B6009300100013010000B39120005E
S1131A70930E1000130E2000639CD15593001000A8
S1131A8013011000B3912000930E2000130E3000B8
S1131A906390D1559300100013017000B39120009E
S1131AA0930E0008130E40006394D153930010006A
S1131AB01301E000B3912000B74E0000130E500054
S1131AC06398D151930010001301F001B3912000E9
S1131AD0B70E0080130E6000639CD14F9300F0FF9B
S1131AE013010000B3912000930EF0FF130E700059
S1131AF06390D14F9300F0FF13011000B3912000C5
S1131B00930EE0FF130E80006394D14D9300F0FF19
S1131B1013017000B3912000930E00F8130E90008F
S1131B206398D14B9300F0FF1301E000B3912000C0
S1131B30B7CEFFFF130EA000639CD1499300F0FFC2
S1131B401301F001B3912000B70E0080130EB00012
S1131B506390D149B7202121938010121301000012
S1131B60B3912000B72E2121938E1E12130EC000B4
S1131B706390D147B72021219380101213011000E4
S1131B80B3912000B74E4242938E2E24130ED00000
S1131B906390D145B7202121938010121301700066
S1131BA0B3912000B79E9090938E0E08130EE00020
S1131BB06390D143B7202121938010121301E000D8
S1131BC0B3912000B74E4848130EF0006392D14100
S1131BD0B7202121938010121301F001B39120004A
S1131BE0B70E0080130E00016394D13FB72021216A
S1131BF093801012130100FEB3912000B72E21210F
S1131C00938E1E12130E10016394D13DB72021212F
S1131C1093801012130110FEB3912000B74E42427C
S1131C20938E2E24130E20016394D13BB7202121DF
S1131C3093801012130170FEB3912000B79E909010
S1131C40938E0E08130E30016394D139B7202121ED
S1131C50938010121301E0FEB3912000B74E484860
S1131C60130E40016396D137B720212193800012CF
S1131C701301F0FFB3912000930E0000130E5001E6
S1131C806398D1359300100013017000B3902000C5
S1131C90930E0008130E6001639CD0339300100070
S1131CA01301E00033912000B74E0000130E7001C1
S1131CB06310D13393003000B3901000930E800171
S1131CC0130E80016396D0311302000093001000BC
S1131CD013017000B391200013830100130212005A
S1131CE093022000E31452FE930E0008130E900199
S1131CF06310D32F13020000930010001301E000BF
S1131D00B39120001300000013830100130212009A
S1131D1093022000E31252FEB74E0000130EA001FE
S1131D206318D32B13020000930010001301F00179
S1131D30B39120001300000013000000138301007E
S1131D401302120093022000E31052FEB70E00802B
S1131D50130EB001631ED32713020000930010007A
S1131D6013017000B39120001302120093022000AB
S1131D70E31652FE930E0008130EC001639AD12598
S1131D8013020000930010001301E0001300000090
S1131D90B39120001302120093022000E31452FEB8
S1131DA0B74E0000130ED0016394D1231302000038
S1131DB0930010001301F001130000001300000051
S1131DC0B39120001302120093022000E31252FE8A
S1131DD0B70E0080130EE001639CD11F13020000B4
S1131DE0930010001300000013017000B391200051
S1131DF01302120093022000E31452FE930E000813
S1131E00130EF0016396D11D13020000930010001D
S1131E10130000001301E00013000000B391200040
S1131E201302120093022000E31252FEB74E000088
S1131E30130E0002639ED1191302000093001000D8
S1131E4013000000130000001301F001B3912000FF
S1131E501302120093022000E31252FEB70E008018
S1131E60130E10026396D1171302000013017000C1
S1131E7093001000B391200013021200930220007B
S1131E80E31652FE930E0008130E20026392D1153E
S1131E90130200001301E00093001000130000007F
S1131EA0B39120001302120093022000E31452FEA7
S1131EB0B74E0000130E3002639CD11113020000D0
S1131EC01301F00193001000130000001300000040
S1131ED0B39120001302120093022000E31252FE79
S1131EE0B70E0080130E40026394D10F130200005A
S1131EF0130170001300000093001000B391200040
S1131F001302120093022000E31452FE930E000801
S1131F10130E5002639ED10B130200001301E00064
S1131F20130000009300100013000000B391200080
S1131F301302120093022000E31252FEB74E000077
S1131F40130E60026396D109130200001301F0011D
S1131F50130000001300000093001000B391200050
S1131F601302120093022000E31252FEB70E008007
S1131F70130E7002639ED1059300F000331110001C
S1131F80930E0000130E80026314D1059300000227
S1131F9033910000930E0002130E9002631AD103D2
S1131FA0B3100000930E0000130EA0026392D0033E
S1131FB0930000403711000013010180339020008A
S1131FC0930E0000130EB0026314D001631AC00311
S1131FD03705001093055004130620059306F004FA
S1131FE01307A0002320B5002320C5002320C5002B
S1131FF02320D5002320C5002320E5007300100012
S1132000370500109305F0041306B0049306A000EE
S11320102320B5002320C5002320D5006FE09FC5F1
S11320203725000013050504370600108305050055
S1132030638A05002320B600130515006FF01FFF07
S1132040737261009305E0022320B6002320B600DA
S1132050B700008013010000B3D12040B70E008008
S1132060130E20006394D159B700008013011000AF
S1132070B3D12040B70E00C0130E30006398D1577F
S1132080B700008013017000B3D12040B70E00FFE9
S1132090130E4000639CD155B70000801301E0008B
S11320A0B3D12040B70EFEFF130E50006390D155FC
S11320B0B7000080938010001301F001B3D12040D9
S11320C0930EF0FF130E60006392D153B7000080AB
S11320D09380F0FF13010000B3D12040B70E0080BD
S11320E0938EFEFF130E70006392D151B7000080EF
S11320F09380F0FF13011000B3D12040B70E0040CD
S1132100938EFEFF130E80006392D14FB7000080C0
S11321109380F0FF13017000B3D12040B70E00018B
S1132120938EFEFF130E90006392D14DB700008092
S11321309380F0FF1301E000B3D12040B70E0200FA
S1132140938EFEFF130EA0006392D14BB700008064
S11321509380F0FF1301F001B3D12040930E0000EF
S1132160130EB0006394D149B78081819380101815
S113217013010000B3D12040B78E8181938E1E18C5
S1132180130EC0006394D147B780818193801018E7
S113219013011000B3D12040B7CEC0C0938E0E0CF3
S11321A0130ED0006394D145B780818193801018B9
S11321B013017000B3D12040B70E03FF938E3E305D
S11321C0130EE0006394D143B7808181938010188B
S11321D01301E000B3D12040B70EFEFF938E6E6072
S11321E0130EF0006394D141B7808181938010185D
S11321F01301F001B3D12040930EF0FF130E000140
S11322006396D13FB780818193801018130100FC3D
S1132210B3D12040B78E8181938E1E18130E100106
S11322206396D13DB780818193801018130110FC0F
S1132230B3D12040B7CEC0C0938E0E0C130E200134
S11322406396D13BB780818193801018130170FC91
S1132250B3D12040B70E03FF938E3E30130E3001EE
S11322606396D139B7808181938010181301E0FC03
S1132270B3D12040B70EFEFF938E6E60130E400163
S11322806396D137B7808181938010181301F0FFD2
S1132290B3D12040930EF0FF130E50016398D13553
S11322A0B700008013017000B3D02040B70E00FFC8
S11322B0130E6001639CD033B70000801301E0006B
S11322C033D12040B70EFEFF130E70016310D133DB
S11322D093007000B3D01040930E0000130E8001E1
S11322E06396D03113020000B70000801301700020
S11322F0B3D1204013830100130212009302200083
S1132300E31452FEB70E00FF130E90016310D32F97
S113231013020000B70000801301E000B3D1204095
S11323201300000013830100130212009302200023
S1132330E31252FEB70EFEFF130EA0016318D32B57
S113234013020000B70000801301F001B3D1204054
S11323501300000013000000138301001302120095
S113236093022000E31052FE930EF0FF130EB0010F
S1132370631ED32713020000B7000080130170000E
S1132380B3D120401302120093022000E31652FE40
S1132390B70E00FF130EC001639AD125130200008B
S11323A0B70000801301E00013000000B3D1204007
S11323B01302120093022000E31452FEB70EFEFF34
S11323C0130ED0016394D12313020000B7000080E0
S11323D01301F0011300000013000000B3D12040EA
S11323E01302120093022000E31252FE930EF0FF38
S11323F0130EE001639CD11F13020000B70000809C
S11324001300000013017000B3D120401302120026
S113241093022000E31452FEB70E00FF130EF001E6
S11324206396D11D13020000B70000801300000062
S11324301301E00013000000B3D120401302120086
S113244093022000E31252FEB70EFEFF130E0002A9
S1132450639ED11913020000B7000080130000002E
S1132460130000001301F001B3D120401302120045
S113247093022000E31252FE930EF0FF130E10029B
S11324806396D1171302000013017000B700008097
S1132490B3D120401302120093022000E31652FE2F
S11324A0B70E00FF130E20026392D1151302000031
S11324B01301E000B700008013000000B3D12040F6
S11324C01302120093022000E31452FEB70EFEFF23
S11324D0130E3002639CD111130200001301F001AA
S11324E0B70000801300000013000000B3D12040A7
S11324F01302120093022000E31252FE930EF0FF27
S1132500130E40026394D10F1302000013017000F4
S113251013000000B7000080B3D120401302120062
S113252093022000E31452FEB70E00FF130E500274
S1132530639ED10B130200001301E000130000009E
S1132540B700008013000000B3D120401302120032
S113255093022000E31252FEB70EFEFF130E600238
S11325606396D109130200001301F0011300000067
S113257013000000B7000080B3D120401302120002
S113258093022000E31252FE930EF0FF130E70022A
S1132590639ED1059300F00033511040930E000068
S11325A0130E80026314D1059300000233D100405E
S11325B0930E0002130E9002631AD103B35000402D
S11325C0930E0000130EA0026392D0039300004008
S11325D0371100001301018033D02040930E000016
S11325E0130EB0026314D001631AC0033705001040
S11325F093055004130620059306F0041307A00066
S11326002320B5002320C5002320C5002320D500A6
S11326102320C5002320E5007300100037050010B7
S11326209305F0041306B0049306A0002320B5001C
S11326302320C5002320D5006FE0CFE63725000016
S11326401305C5653706001083050500638A050078
S11326502320B600130515006FF01FFF6C680000FF
S11326609305E0022320B6002320B60097700000F3
S11326709380006C83910000930EF00F130E2000E2
S1132680639CD125977000009380806A8391200019
S1132690930E00F0130E30006390D1259770000064
S11326A09380006983914000B71E0000938E0EFF53
S11326B0130E40006392D12397700000938040670B
S11326C083916000B7FEFFFF938EFE00130E50004F
S11326D06394D121977000009380E0658391A0FFFB
S11326E0930EF00F130E60006398D11F97700000D3
S11326F0938060648391C0FF930E00F0130E70000A
S1132700639CD11D977000009380E0628391E0FF89
S1132710B71E0000938E0EFF130E8000639ED11B24
S1132720977000009380206183910000B7FEFFFF43
S1132730938EFE00130E90006390D11B97700000DF
S11327409380005F938000FE83910002930EF00F4C
S1132750130EA0006392D119977000009380405D1E
S11327609380B0FF83917000930E00F0130EB000BD
S11327706394D117130EC000130200009770000079
S11327809380205B8391200013830100B71E000017
S1132790938E0EFF6312D3151302120093022000CE
S11327A0E31E52FC130ED0001302000097700000C9
S11327B0938040588391200013000000138301008C
S11327C0B7FEFFFF938EFE006318D31113021200AD
S11327D093022000E31C52FC130EE00013020000DD
S11327E0977000009380C054839120001300000070
S11327F01300000013830100930E00F0631ED30D39
S11328001302120093022000E31C52FC130EF0008A
S113281013020000977000009380A0518391200060
S1132820B71E0000938E0EFF6398D10B13021200A3
S113283093022000E31052FE130E00011302000065
S1132840977000009380004F1300000083912000D4
S1132850B7FEFFFF938EFE006390D10913021200AE
S113286093022000E31E52FC130E10011302000019
S1132870977000009380C04B130000001300000009
S113288083912000930E00F06398D1051302120087
S113289093022000E31E52FC97710000938141498A
S11328A00391010013012000930E2000130E200158
S11328B06314D10397710000938181470391010050
S11328C01300000013012000930E2000130E3001AA
S11328D06314D101631AC003370500109305500433
S11328E0130620059306F0041307A0002320B50067
S11328F02320C5002320C5002320D5002320C500A4
S11329002320E50073001000370500109305F00440
S11329101306B0049306A0002320B5002320C500AD
S11329202320D5006FE04FA83735000013058594A8
S11329303706001083050500638C05002320B600CC
S1132940130515006FF01FFF73726169000000002A
S11329509305E0022320B6002320B6009300000074
S113296093D10040930E0000130E20006394D12BEA
S1132970B700008093D11040B70E00C0130E300092
S1132980639AD129B700008093D17040B70E00FF3D
S1132990130E40006390D129B700008093D1E0402A
S11329A0B70EFEFF130E50006396D127B7000080C8
S11329B09380100093D1F041930EF0FF130E60004A
S11329C0639AD125B70000809380F0FF93D1004033
S11329D0B70E0080938EFEFF130E7000639CD1230C
S11329E0B70000809380F0FF93D11040B70E0040F1
S11329F0938EFEFF130E8000639ED121B7000080EA
S1132A009380F0FF93D17040B70E0001938EFEFFC8
S1132A10130E90006390D121B70000809380F0FFE3
S1132A2093D1E040B70E0200938EFEFF130EA00078
S1132A306392D11FB70000809380F0FF93D1F041DF
S1132A40930E0000130EB0006396D11DB7808181F0
S1132A509380101893D10040B78E8181938E1E18F5
S1132A60130EC0006398D11BB78081819380101826
S1132A7093D11040B7CEC0C0938E0E0C130ED0006D
S1132A80639AD119B78081819380101893D17040D3
S1132A90B70E03FF938E3E30130EE000639CD117F4
S1132AA0B78081819380101893D1E040B70EFEFF68
S1132AB0938E6E60130EF000639ED115B7808181F2
S1132AC09380101893D1F041930EF0FF130E000180
S1132AD06392D115B700008093D07040B70E00FF09
S1132AE0130E10016398D01313020000B700008086
S1132AF093D170401383010013021200930220004B
S1132B00E31652FEB70E00FF130E20016314D31117
S1132B1013020000B700008093D1E04013000000CE
S1132B20138301001302120093022000E31452FEE7
S1132B30B70EFEFF130E3001631ED30D1302000007
S1132B40B70000809380100093D1F041130000007F
S1132B5013000000138301001302120093022000EB
S1132B60E31052FE930EF0FF130E40016314D30BD7
S1132B7013020000B700008093D1704013021200CA
S1132B8093022000E31852FEB70E00FF130E50010B
S1132B906392D10913020000B70000801300000003
S1132BA093D1E0401302120093022000E31652FE78
S1132BB0B70EFEFF130E6001639ED10513020000E1
S1132BC0B700008093801000130000001300000081
S1132BD093D1F0411302120093022000E31252FE3B
S1132BE0930EF0FF130E70016396D1039350F041DE
S1132BF0930E0000130E8001639ED0019300100217
S1132C0013D04041930E0000130E90016314D001C1
S1132C10631AC003370500109305500413062005FA
S1132C209306F0041307A0002320B5002320C50059
S1132C302320C5002320D5002320C5002320E50040
S1132C4073001000370500109305F0041306B00458
S1132C509306A0002320B5002320C5002320D5001F
S1132C606FD01FFF37350000130545C83706001025
S1132C7083050500638A05002320B60013051500AB
S1132C806FF01FFF72656D009305E0022320B6000C
S1132C902320B6009300400113016000B3E1200239
S1132CA0930E2000130E20006394D10D9300C0FEF8
S1132CB013016000B3E12002930EE0FF130E300015
S1132CC06398D10B930040011301A0FFB3E12002EC
S1132CD0930E2000130E4000639CD1099300C0FEA4
S1132CE01301A0FFB3E12002930EE0FF130E500086
S1132CF06390D109B700008013011000B3E12002F2
S1132D00930E0000130E60006394D107B700008097
S1132D101301F0FFB3E12002930E0000130E7000C4
S1132D206398D105B700008013010000B3E12002CD
S1132D30B70E0080130E8000639CD1039300100033
S1132D4013010000B3E12002930E1000130E900053
S1132D506390D1039300000013010000B3E120024B
S1132D60930E0000130EA0006394D101631AC003F4
S1132D703705001093055004130620059306F0044C
S1132D801307A0002320B5002320C5002320C5007D
S1132D902320D5002320C5002320E5007300100064
S1132DA0370500109305F0041306B0049306A00041
S1132DB02320B5002320C5002320D5006FD05FF564
S1132DC037350000130505DE3706001083050500BE
S1132DD0638C05002320B600130515006FF01FFF58
S1132DE06D756C68000000009305E0022320B600B6
S1132DF02320B6009300000013010000B3912002C9
S1132E00930E0000130E2000639AD14B9300100020
S1132E1013011000B3912002930E0000130E300032
S1132E20639ED1499300300013017000B3912002D6
S1132E30930E0000130E40006392D14993000000EA
S1132E403781FFFFB3912002930E0000130E500050
S1132E506396D147B700008013010000B3912002AC
S1132E60930E0000130E6000639AD145B7000080F2
S1132E7013010000B3912002930E0000130E7000A2
S1132E80639ED143B7B0AAAA9380B0AA37010300C6
S1132E901301D1E7B3912002B70EFFFF938E1E08F2
S1132EA0130EE001639CD141B70003009380D0E787
S1132EB037B1AAAA1301B1AAB3912002B70EFFFF3A
S1132EC0938E1E08130EF001639AD13FB70000FFE2
S1132ED0370100FFB3912002B70E0100130E000268
S1132EE0639ED13D9300F0FF1301F0FFB3912002E4
S1132EF0930E0000130E10026392D13D9300F0FF75
S1132F0013011000B3912002930EF0FF130E200260
S1132F106396D13B930010001301F0FFB39120029C
S1132F20930EF0FF130E3002639AD139B700D0002C
S1132F303701B000B3902002B79E0000938E0EF0CC
S1132F40130E8000639CD037B700E0003701B00057
S1132F5033912002B7AE0000938E0EA0130E9000A2
S1132F60631ED135B700D000B3901002B7BE000085
S1132F70938E0E90130EA0006392D03513020000BE
S1132F80B700D0003701B000B391200213830100D1
S1132F901302120093022000E31452FEB79E0000B5
S1132FA0938E0EF0130EB000631AD3311302000097
S1132FB0B700E0003701B000B39120021300000015
S1132FC0138301001302120093022000E31252FE45
S1132FD0B7AE0000938E0EA0130EC0006310D32F63
S1132FE013020000B700F0003701B000B3912002D3
S1132FF013000000130000001383010013021200E9
S113300093022000E31052FEB7AE0000938E0E50E0
S1133010130ED0006314D32B13020000B700D000AA
S11330203701B000B3912002130212009302200072
S1133030E31652FEB79E0000938E0EF0130EE000CE
S1133040639ED12713020000B700E0003701B000EF
S113305013000000B3912002130212009302200017
S1133060E31452FEB7AE0000938E0EA0130EF000D0
S11330706396D12513020000B700F0003701B000B9
S11330801300000013000000B39120021302120089
S113309093022000E31252FEB7AE0000938E0E504E
S11330A0130E0001639CD12113020000B700D0006D
S11330B0130000003701B000B39120021302120084
S11330C093022000E31452FEB79E0000938E0EF08C
S11330D0130E10016394D11F13020000B700E00027
S11330E0130000003701B00013000000B391200268
S11330F01302120093022000E31252FEB7AE000046
S1133100938E0EA0130E2001639AD11B13020000AC
S1133110B700F00013000000130000003701B000F6
S1133120B39120021302120093022000E31252FE14
S1133130B7AE0000938E0E50130E30016390D11978
S1133140130200003701B000B700D000B391200291
S11331501302120093022000E31652FEB79E0000F1
S1133160938E0EF0130E4001639AD11513020000E2
S11331703701B000B700E00013000000B391200253
S11331801302120093022000E31452FEB7AE0000B3
S1133190938E0EA0130E50016392D11313020000FC
S11331A03701B000B700F000130000001300000066
S11331B0B39120021302120093022000E31252FE84
S11331C0B7AE0000938E0E50130E60016398D10FBA
S11331D0130200003701B00013000000B700D00054
S11331E0B39120021302120093022000E31452FE52
S11331F0B79E0000938E0EF0130E70016390D10DF4
S1133200130200003701B00013000000B700E00013
S113321013000000B3912002130212009302200055
S1133220E31252FEB7AE0000938E0EA0130E80017F
S11332306396D109130200003701B00013000000A7
S113324013000000B700F000B39120021302120033
S113325093022000E31252FEB7AE0000938E0E508C
S1133260130E9001639CD105B700007C331110024A
S1133270930E0000130EA0016312D105B700008065
S113328033910002930E0000130EB0016318D103B2
S1133290B3100002930E0000130EC0016390D0031C
S11332A0B70010023701200233902002930E000071
S11332B0130ED0016314D001631AC0033705001044
S11332C093055004130620059306F0041307A00089
S11332D02320B5002320C5002320C5002320D500CA
S11332E02320C5002320E5007300100037050010DB
S11332F09305F0041306B0049306A0002320B50040
S11333002320C5002320D5006FD01F9C3735000033
S11333101305C5323706001083050500638A0500CE
S11333202320B600130515006FF01FFF6C62000028
S11333309305E0022320B6002320B6009770000016
S11333409380809F83810000930EF0FF130E200072
S1133350639CD123977000009380009E83811000AA
S1133360930E0000130E30006390D1239770000079
S11333709380809C83812000930E00FF130E4000F5
S11333806394D121977000009380009B8381300067
S1133390930EF000130E50006398D11F9770000035
S11333A09380B0998381D0FF930EF0FF130E6000D9
S11333B0639CD11D97700000938030988381E0FF57
S11333C0930E0000130E70006390D11D97700000DF
S11333D09380B0968381F0FF930E00FF130E80005C
S11333E06394D11B97700000938030958381000013
S11333F0930EF000130E90006398D119977000009B
S113340093808093938000FE83810002930EF0FFEB
S1133410130EA000639AD117977000009380C09197
S11334209380A0FF83817000930E0000130EB00000
S1133430639CD115130EC0001302000097700000A6
S11334409380908F8381100013830100930E00FFFB
S1133450631CD3131302120093022000E31052FEE4
S1133460130ED00013020000977000009380E08CCC
S1133470838110001300000013830100930EF000F9
S11334806314D3111302120093022000E31E52FCB2
S1133490130EE00013020000977000009380C089AF
S11334A08381100013000000130000001383010047
S11334B0930E0000631AD30D13021200930220002E
S11334C0E31C52FC130EF00013020000977000007E
S11334D09380908683811000930E00FF6396D10B36
S11334E01302120093022000E31252FE130E000195
S11334F013020000977000009380208413000000E2
S113350083811000930EF0006390D109130212001E
S113351093022000E31052FE130E10011302000068
S11335209770000093804081130000001300000096
S113353083811000930E00006398D10513021200DA
S113354093022000E31E52FC976100009381C17E28
S11335500381010013012000930E2000130E2001AB
S11335606314D103976100009381017D03810100FD
S11335701300000013012000930E2000130E3001ED
S11335806314D101631AC003370500109305500476
S1133590130620059306F0041307A0002320B500AA
S11335A02320C5002320C5002320D5002320C500E7
S11335B02320E50073001000370500109305F00484
S11335C01306B0049306A0002320B5002320C500F1
S11335D02320D5006FD08FDC373500001305855FBD
S11335E03706001083050500638C05002320B60010
S11335F0130515006FF01FFF62676575000000007A
S11336009305E0022320B6002320B600130E200009
S1133610930000001301000063F620006312C0351C
S11336206316C001E3FE20FE631CC033130E30009A
S1133630930010001301100063F620006312C033DE
S11336406316C001E3FE20FE631CC031130E40006C
S11336509300F0FF1301F0FF63F620006312C03102
S11336606316C001E3FE20FE631CC02F130E50003E
S1133670930010001301000063F620006312C02FB2
S11336806316C001E3FE20FE631CC02D130E600010
S11336909300F0FF1301E0FF63F620006312C02DD6
S11336A06316C001E3FE20FE631CC02B130E7000E2
S11336B09300F0FF1301000063F620006312C02B97
S11336C06316C001E3FE20FE631CC029130E8000B4
S11336D0930000001301100063F420006314C00180
S11336E06310C029E3FE20FE130E90009300E0FF58
S11336F01301F0FF63F420006314C0016312C027B8
S1133700E3FE20FE130EA000930000001301F0FF5F
S113371063F420006314C0016314C025E3FE20FE9B
S1133720130EB000B70000809380F0FF37010080D3
S113373063F420006314C0016314C023E3FE20FE7D
S1133740130EC00013020000B70000F09380F0FFD6
S1133750370100F063F620201302120093022000C8
S1133760E31452FE130ED00013020000B70000F061
S11337709380F0FF370100F01300000063F2201E75
S11337801302120093022000E31252FE130EE00013
S113379013020000B70000F09380F0FF370100F03F
S11337A0130000001300000063FC201A130212002F
S11337B093022000E31052FE130EF00013020000E7
S11337C0B70000F09380F0FF13000000370100F011
S11337D063F820181302120093022000E31252FE31
S11337E0130E000113020000B70000F09380F0FFF5
S11337F013000000370100F01300000063F22016EC
S11338001302120093022000E31052FE130E100163
S113381013020000B70000F09380F0FF13000000D3
S113382013000000370100F063FC201213021200A1
S113383093022000E31052FE130E20011302000035
S1133840B70000F09380F0FF370100F063FA201016
S11338501302120093022000E31452FE130E3001EF
S113386013020000B70000F09380F0FF370100F06E
S11338701300000063F6200E1302120093022000CE
S1133880E31252FE130E400113020000B70000F0D1
S11338909380F0FF370100F01300000013000000D4
S11338A063F0200C1302120093022000E31052FE76
S11338B0130E500113020000B70000F09380F0FFD4
S11338C013000000370100F063FC2008130212000B
S11338D093022000E31252FE130E60011302000053
S11338E0B70000F09380F0FF13000000370100F0F0
S11338F01300000063F62006130212009302200056
S1133900E31052FE130E700113020000B70000F022
S11339109380F0FF1300000013000000370100F053
S113392063F020041302120093022000E31052FEFD
S11339309300100063FA000093801000938010003D
S113394093801000938010009380100093801000E7
S1133950930E3000130E80016394D001631AC003E8
S11339603705001093055004130620059306F00450
S11339701307A0002320B5002320C5002320C50081
S11339802320D5002320C5002320E5007300100068
S1133990370500109305F0041306B0049306A00045
S11339A02320B5002320C5002320D5006FD04F9ECF
S11339B0374500001305059D3706001083050500F3
S11339C0638A05002320B600130515006FF01FFF5E
S11339D0737700009305E0022320B6002320B6008D
S11339E097600000938080353701AA001301A10A73
S11339F023A0200083A10000B70EAA00938EAE0A74
S1133A00130E20006390D147976000009380003329
S1133A1037B100AA130101A023A2200083A1400012
S1133A20B7BE00AA938E0EA0130E3000639CD14340
S1133A3097600000938080303711A00A130101AA17
S1133A4023A4200083A18000B71EA00A938E0EAA8F
S1133A50130E40006398D141976000009380002EBC
S1133A6037A10AA01301A10023A6200083A1C0004E
S1133A70B7AE0AA0938EAE00130E50006394D13FEC
S1133A80976000009380402D3701AA001301A10A1A
S1133A9023AA20FE83A140FFB70EAA00938EAE0A8C
S1133AA0130E60006390D13D976000009380C02A9C
S1133AB037B100AA130101A023AC20FE83A180FF2B
S1133AC0B7BE00AA938E0EA0130E7000639CD1396A
S1133AD097600000938040283711A00A130101AABF
S1133AE023AE20FE83A1C0FFB71EA00A938E0EAAA8
S1133AF0130E80006398D137976000009380C0252F
S1133B0037A10AA01301A10023A0200083A1000073
S1133B10B7AE0AA0938EAE00130E90006394D13515
S1133B20976000009380802337513412130181671A
S1133B30138200FE2320220283A10000B75E341208
S1133B40938E8E67130EA000639ED13197600000A0
S1133B509380C02037312158130181099380D0FF0D
S1133B60A3A32000176200001302821F8321020016
S1133B70B73E2158938E8E09130EB0006394D12F53
S1133B80130EC00013020000B7D0BBAA9380D0CD9F
S1133B90176100001301811A232011008321010001
S1133BA0B7DEBBAA938EDECD639ED12B1302120027
S1133BB093022000E31A52FC130ED00013020000FB
S1133BC0B7C0ABDA9380D0CC1761000013010117A2
S1133BD0130000002322110083214100B7CEABDA89
S1133BE0938EDECC6390D12913021200930220003D
S1133BF0E31852FC130EE00013020000B7C0AADD64
S1133C009380C0BC1761000013014113130000002E
S1133C10130000002324110083218100B7CEAADD04
S1133C20938ECEBC6390D125130212009302200020
S1133C30E31652FC130EF00013020000B7B0DACD05
S1133C409380C0BB13000000176100001301010F33
S1133C50232611008321C100B7BEDACD938ECEBBDB
S1133C606392D1211302120093022000E31852FC44
S1133C70130E000113020000B7B0DDCC9380B0AB8B
S1133C8013000000176100001301410B1300000032
S1133C902328110083210101B7BEDDCC938EBEAB76
S1133CA06392D11D1302120093022000E31652FC0A
S1133CB0130E100113020000B7E0CDBC9380B0AA2C
S1133CC01300000013000000176100001301010736
S1133CD0232A110083214101B7EECDBC938EBEAAE5
S1133CE06392D1191302120093022000E31652FCCE
S1133CF0130E2001130200001761000013010104D8
S1133D00B720110093803023232011008321010068
S1133D10B72E1100938E3E236396D1151302120021
S1133D2093022000E31A52FC130E30011302000028
S1133D301761000013018100B71001309380302215
S1133D40130000002322110083214100B71E01301B
S1133D50938E3E226398D111130212009302200025
S1133D60E31852FC130E4001130200001761000017
S1133D701301C1FCB710003393802012130000001C
S1133D80130000002324110083218100B71E003397
S1133D90938E2E126398D10D130212009302200009
S1133DA0E31652FC130E50011302000017610000C9
S1133DB01301C1F813000000B700302393802011D1
S1133DC0232611008321C100B70E3023938E2E11B8
S1133DD0639AD1091302120093022000E31852FCE3
S1133DE0130E60011302000017610000130101F5B6
S1133DF013000000B7003322938010011300000069
S1133E002328110083210101B70E3322938E1E0152
S1133E10639AD1051302120093022000E31652FCA8
S1133E20130E70011302000017610000130101F169
S1133E301300000013000000B73023129380100019
S1133E40232A110083214101B73E2312938E1E00C1
S1133E50639AD1011302120093022000E31652FC6C
S1133E60631AC00337050010930550041306200598
S1133E709306F0041307A0002320B5002320C500F7
S1133E802320C5002320D5002320C5002320E500DE
S1133E9073001000370500109305F0041306B004F6
S1133EA09306A0002320B5002320C5002320D500BD
S1133EB06FC01FD437450000130545ED37060010C9
S1133EC083050500638A05002320B6001305150049
S1133ED06FF01FFF646976009305E0022320B600AB
S1133EE02320B6009300400113016000B3C12002F7
S1133EF0930E3000130E20006394D10D9300C0FE86
S1133F0013016000B3C12002930ED0FF130E3000E2
S1133F106398D10B930040011301A0FFB3C12002A9
S1133F20930ED0FF130E4000639CD1099300C0FE92
S1133F301301A0FFB3C12002930E3000130E5000F2
S1133F406390D109B700008013011000B3C12002AF
S1133F50B70E0080130E60006394D107B700008091
S1133F601301F0FFB3C12002B70E0080130E7000DE
S1133F706398D105B700008013010000B3C120028B
S1133F80930EF0FF130E8000639CD1039300100086
S1133F9013010000B3C12002930EF0FF130E900032
S1133FA06390D1039300000013010000B3C1200209
S1133FB0930EF0FF130EA0006394D101631AC003A3
S1133FC03705001093055004130620059306F004EA
S1133FD01307A0002320B5002320C5002320C5001B
S1133FE02320D5002320C5002320E5007300100002
S1133FF0370500109305F0041306B0049306A000DF
S11340002320B5002320C5002320D5006FC0DFCEB8
S11340103745000013050503370600108305050026
S1134020638A05002320B600130515006FF01FFFF7
S1134030626571009305E0022320B6002320B600D8
S1134040130E20009300000013010000638620007B
S11340506318C02B6316C001E38E20FE6312C02BCD
S1134060130E30009300100013011000638620002B
S11340706318C0296316C001E38E20FE6312C029B1
S1134080130E40009300F0FF1301F0FF638620003D
S11340906318C0276316C001E38E20FE6312C02795
S11340A0130E5000930000001301100063842000DD
S11340B06314C0016316C025E38E20FE130E600056
S11340C09300100013010000638420006314C001F6
S11340D06318C023E38E20FE130E70009300F0FFDC
S11340E013011000638420006314C001631AC0210B
S11340F0E38E20FE130E8000930010001301F0FFE6
S1134100638420006314C001631CC01FE38E20FE7F
S1134110130E900013020000930000001301F0FF3F
S11341206380201E1302120093022000E31652FE45
S1134130130EA00013020000930000001301F0FF0F
S113414013000000638E201A130212009302200051
S1134150E31452FE130EB00013020000930000009B
S11341601301F0FF1300000013000000638A2018FD
S11341701302120093022000E31252FE130EC00039
S11341801302000093000000130000001301F0FF6D
S1134190638820161302120093022000E31452FED7
S11341A0130ED0001302000093000000130000005F
S11341B01301F0FF130000006384201413021200A3
S11341C093022000E31252FE130EE00013020000DB
S11341D09300000013000000130000001301F0FF1F
S11341E0638020121302120093022000E31252FE95
S11341F0130EF00013020000930000001301F0FFFF
S1134200638020101302120093022000E31652FE72
S1134210130E000113020000930000001301F0FFCD
S113422013000000638E200C13021200930220007E
S1134230E31452FE130E1001130200009300000059
S11342401301F0FF1300000013000000638A200A2A
S11342501302120093022000E31252FE130E2001F7
S11342601302000093000000130000001301F0FF8C
S1134270638820081302120093022000E31452FE04
S1134280130E30011302000093000000130000001D
S11342901301F0FF130000006384200613021200D0
S11342A093022000E31252FE130E40011302000099
S11342B09300000013000000130000001301F0FF3E
S11342C0638020041302120093022000E31252FEC2
S11342D093001000630A0000938010009380100084
S11342E0938010009380100093801000938010003E
S11342F0930E3000130E50016394D001631AC0036F
S11343003705001093055004130620059306F004A6
S11343101307A0002320B5002320C5002320C500D7
S11343202320D5002320C5002320E50073001000BE
S1134330370500109305F0041306B0049306A0009B
S11343402320B5002320C5002320D5006FC09F8003
S113435037450000130505373706001083050500AF
S1134360638C05002320B600130515006FF01FFFB2
S113437061756970630000009305E0022320B600B4
S11343802320B60013000000172500001305C57193
S1134390EF0540003305B540B72E0000938E0E7133
S11343A0130E20006314D50317E5FFFF1305C58F13
S11343B0EF0540003305B540B7EEFFFF938E0E8F37
S11343C0130E30006314D501631AC00337050010BF
S11343D093055004130620059306F0041307A00068
S11343E02320B5002320C5002320C5002320D500A9
S11343F02320C5002320E5007300100037050010BA
S11344009305F0041306B0049306A0002320B5001E
S11344102320C5002320D5006FC0CFF0374500000E
S11344201305C5433706001083050500638C05009A
S11344302320B600130515006FF01FFF6164646943
S1134440000000009305E0022320B6002320B600FC
S11344509300000093810000930E0000130E2000CF
S1134460639CD1279300100093811000930E2000C9
S1134470130E30006392D1279300300093817000B3
S1134480930EA000130E40006398D1259300000002
S113449093810080930E0080130E5000639ED123FD
S11344A0B700008093810000B70E0080130E6000F7
S11344B06394D123B700008093810080B70E0080FD
S11344C0938E0E80130E70006398D1219300000028
S11344D09381F07F930EF07F130E8000639ED11FB3
S11344E0B70000809380F0FF93810000B70E008036
S11344F0938EFEFF130E90006390D11FB7000080CF
S11345009380F0FF9381F07FB70E0080938EEE7F4F
S1134510130EA0006392D11DB70000809381F07F39
S1134520B70E0080938EFE7F130EB0006396D11BEE
S1134530B70000809380F0FF93810080B7FEFF7F77
S1134540938EFE7F130EC0006398D1199300000070
S11345509381F0FF930EF0FF130ED000639ED117EA
S11345609300F0FF93811000930E0000130EE000FF
S11345706394D1179300F0FF9381F0FF930EE0FF53
S1134580130EF000639AD115B70000809380F0FFFA
S113459093811000B70E0080130E0001639ED113A7
S11345A09300D0009380B000930E8001130E10018D
S11345B06394D013130200009300D0009381B000E1
S11345C0138301001302120093022000E31652FE2B
S11345D0930E8001130E20016310D3111302000007
S11345E09300D0009381A000130000001383010006
S11345F01302120093022000E31452FE930E700182
S1134600130E3001631AD30D130200009300D0007F
S11346109381900013000000130000001383010035
S11346201302120093022000E31252FE930E600163
S1134630130E40016312D30B130200009300D00049
S11346409381B0001302120093022000E31852FE7B
S1134650930E8001130E50016390D10913020000E0
S11346609300D000130000009381A00013021200F5
S113467093022000E31652FE930E7001130E6001A4
S1134680639CD105130200009300D00013000000C6
S11346901300000093819000130212009302200083
S11346A0E31452FE930E6001130E70016396D1035E
S11346B093000002930E0002130E8001639ED0014A
S11346C09300100213802003930E0000130E900138
S11346D06314D001631AC003370500109305500416
S11346E0130620059306F0041307A0002320B50049
S11346F02320C5002320C5002320D5002320C50086
S11347002320E50073001000370500109305F00422
S11347101306B0049306A0002320B5002320C5008F
S11347202320D5006FC08FCD374500001305857455
S11347303706001083050500638C05002320B600AE
S1134740130515006FF01FFF6A616C720000000012
S11347509305E0022320B6002320B600130E2000A8
S1134760930F00001701000013018101E709010004
S113477013000000130000006F00400E97000000BB
S1134780938000FF93804000639A300D130E300035
S1134790930F00009701000093814101678001009D
S11347A0130000006F00800B639A0F0A130E400081
S11347B0130200001703000013030301E7090300B9
S11347C0631EC0091302120093022000E31452FE78
S11347D0130E5000130200001703000013034301DB
S11347E013000000E7090300631AC0071302120054
S11347F093022000E31252FE130E60001302000025
S113480017030000130383011300000013000000CA
S1134810E70903006314C005130212009302200089
S1134820E31052FE93001000170100001301C101B0
S1134830E709C1FF9380100093801000938010005B
S1134840938010009380100093801000930E40001A
S1134850130E70006394D001631AC003370500106F
S113486093055004130620059306F0041307A000D3
S11348702320B5002320C5002320C5002320D50014
S11348802320C5002320E500730010003705001025
S11348909305F0041306B0049306A0002320B5008A
S11348A02320C5002320D5006FC00FAA3755000070
S11348B01305C58C3706001083050500638A0500BF
S11348C02320B600130515006FF01FFF6C7700005E
S11348D09305E0022320B6002320B6009750000081
S11348E09380404883A10000B70EFF00938EFE0F13
S11348F0130E2000639AD1279750000093808046BE
S113490083A14000B70E01FF938E0EF0130E30000A
S1134910639CD125975000009380C04483A18000FC
S1134920B71EF00F938E0EFF130E4000639ED1232B
S1134930975000009380004383A1C000B7FE0FF09E
S1134940938EFE00130E50006390D1239750000005
S11349509380004283A140FFB70EFF00938EFE0FA9
S1134960130E60006392D121975000009380404061
S113497083A180FFB70E01FF938E0EF0130E70001B
S11349806394D11F975000009380803E83A1C0FFA1
S1134990B71EF00F938E0EFF130E80006396D11D89
S11349A0975000009380C03C83A10000B7FE0FF035
S11349B0938EFE00130E90006398D11B9750000055
S11349C09380403A938000FE83A10002B70EFF005B
S11349D0938EFE0F130EA0006398D1199750000018
S11349E0938040389380D0FF83A17000B70E01FFFD
S11349F0938E0EF0130EB0006398D117130EC000FF
S1134A0013020000975000009380003683A14000F9
S1134A1013830100B71EF00F938E0EFF6316D31598
S1134A201302120093022000E31E52FC130ED00066
S1134A3013020000975000009380403383A140008C
S1134A401300000013830100B7FE0FF0938EFE00E5
S1134A50631CD3111302120093022000E31C52FCC6
S1134A60130EE00013020000975000009380802F83
S1134A7083A1400013000000130000001383010011
S1134A80B70E01FF938E0EF06310D30F13021200C2
S1134A9093022000E31A52FC130EF00013020000EC
S1134AA0975000009380402C83A14000B71EF00F64
S1134AB0938E0EFF639AD10B13021200930220000F
S1134AC0E31052FE130E0001130200009750000081
S1134AD09380C0291300000083A14000B7FE0FF0AB
S1134AE0938EFE006392D1091302120093022000F8
S1134AF0E31E52FC130E1001130200009750000035
S1134B0093804026130000001300000083A140009E
S1134B10B70E01FF938E0EF06398D10513021200B5
S1134B2093022000E31C52FC9751000093818123DF
S1134B3003A1010013012000930E2000130E200195
S1134B406314D103975100009381C12103A1010093
S1134B501300000013012000930E2000130E3001F7
S1134B606314D101631AC003370500109305500480
S1134B70130620059306F0041307A0002320B500B4
S1134B802320C5002320C5002320D5002320C500F1
S1134B902320E50073001000370500109305F0048E
S1134BA01306B0049306A0002320B5002320C500FB
S1134BB02320D5006FC00F8037550000130585BD35
S1134BC03706001083050500638A05002320B6001C
S1134BD0130515006FF01FFF6F7269009305E00263
S1134BE02320B6002320B600B70001FF938000F015
S1134BF093E1F0F0930EF0F0130E20006394D11DB6
S1134C00B710F00F938000FF93E1000FB71EF00F71
S1134C10938E0EFF130E30006396D11BB700FF0076
S1134C209380F00F93E1F070B70EFF00938EFE7F38
S1134C30130E40006398D119B7F00FF09380F00081
S1134C4093E1000FB7FE0FF0938EFE0F130E50008A
S1134C50639AD117B70001FF938000F093E0000F2F
S1134C60B70E01FF938E0EFF130E6000639CD015E8
S1134C7013020000B710F00F938000FF93E1000FC0
S1134C80138301001302120093022000E31452FE66
S1134C90B71EF00F938E0EFF130E70006314D31320
S1134CA013020000B700FF009380F00F93E1F0704F
S1134CB0130000001383010013021200930220006A
S1134CC0E31252FEB70EFF00938EFE7F130E800098
S1134CD0631AD30F13020000B7F00FF09380F000B3
S1134CE093E1000F13000000130000001383010080
S1134CF01302120093022000E31052FEB7FE0FF0DD
S1134D00938EFE0F130E9000631ED30B130200004C
S1134D10B710F00F938000FF93E1000F130212000D
S1134D2093022000E31652FEB71EF00F938E0EFF7F
S1134D30130EA0006398D10913020000B700FF000E
S1134D409380F00F1300000093E1F0F013021200BF
S1134D5093022000E31452FE930EF0FF130EB000F2
S1134D606392D10713020000B7F00FF09380F000B4
S1134D70130000001300000093E1000F130212005F
S1134D8093022000E31252FEB7FE0FF0938EFE0F43
S1134D90130EC0006398D1039360000F930E000FAD
S1134DA0130ED0006390D003B700FF009380F00F80
S1134DB013E0F070930E0000130EE0006314D001B2
S1134DC0631AC00337050010930550041306200529
S1134DD09306F0041307A0002320B5002320C50088
S1134DE02320C5002320D5002320C5002320E5006F
S1134DF073001000370500109305F0041306B00487
S1134E009306A0002320B5002320C5002320D5004D
S1134E106FB01FE137550000130545E33706001056
S1134E2083050500638A05002320B60013051500D9
S1134E306FF01FFF6A0000009305E0022320B60014
S1134E402320B600130E20006F0080006F00400383
S1134E50930010006F0040019380100093801000B5
S1134E6093801000938010009380100093801000B2
S1134E70930E3000130E30006394D001631AC00304
S1134E803705001093055004130620059306F0041B
S1134E901307A0002320B5002320C5002320C5004C
S1134EA02320D5002320C5002320E5007300100033
S1134EB0370500109305F0041306B0049306A00010
S1134EC02320B5002320C5002320D5006FB05FC682
S1134ED037550000130505EF37060010830505005C
S1134EE0638C05002320B600130515006FF01FFF27
S1134EF06D756C68750000009305E0022320B60010
S1134F002320B6009300000013010000B3B1200277
S1134F10930E0000130E2000639AD14B93001000EF
S1134F2013011000B3B12002930E0000130E3000E1
S1134F30639ED1499300300013017000B3B1200285
S1134F40930E0000130E40006392D14993000000B9
S1134F503781FFFFB3B12002930E0000130E5000FF
S1134F606396D147B700008013010000B3B120025B
S1134F70930E0000130E6000639AD145B7000080C1
S1134F803781FFFFB3B12002B7CEFF7F130E70004D
S1134F90639ED143B7B0AAAA9380B0AA3701030095
S1134FA01301D1E7B3B12002B70E0200938EEEEFE6
S1134FB0130EE001639CD141B70003009380D0E756
S1134FC037B1AAAA1301B1AAB3B12002B70E0200E5
S1134FD0938EEEEF130EF001639AD13FB70000FFFA
S1134FE0370100FFB3B12002B70E01FE130E000219
S1134FF0639ED13D9300F0FF1301F0FFB3B1200293
S1135000930EE0FF130E10026392D13D9300F0FF64
S113501013011000B3B12002930E0000130E2002FE
S11350206396D13B930010001301F0FFB3B120024B
S1135030930E0000130E3002639AD139B700D000EA
S11350403701B000B3B02002B79E0000938E0EF07B
S1135050130E8000639CD037B700E0003701B00026
S113506033B12002B7AE0000938E0EA0130E900051
S1135070631ED135B700D000B3B01002B7BE000034
S1135080938E0E90130EA0006392D035130200008D
S1135090B700D0003701B000B3B120021383010080
S11350A01302120093022000E31452FEB79E000084
S11350B0938E0EF0130EB000631AD3311302000066
S11350C0B700E0003701B000B3B1200213000000C4
S11350D0138301001302120093022000E31252FE14
S11350E0B7AE0000938E0EA0130EC0006310D32F32
S11350F013020000B700F0003701B000B3B1200282
S113510013000000130000001383010013021200B7
S113511093022000E31052FEB7AE0000938E0E50AF
S1135120130ED0006314D32B13020000B700D00079
S11351303701B000B3B12002130212009302200021
S1135140E31652FEB79E0000938E0EF0130EE0009D
S1135150639ED12713020000B700E0003701B000BE
S113516013000000B3B120021302120093022000C6
S1135170E31452FEB7AE0000938E0EA0130EF0009F
S11351806396D12513020000B700F0003701B00088
S11351901300000013000000B3B120021302120038
S11351A093022000E31252FEB7AE0000938E0E501D
S11351B0130E0001639CD12113020000B700D0003C
S11351C0130000003701B000B3B120021302120033
S11351D093022000E31452FEB79E0000938E0EF05B
S11351E0130E10016394D11F13020000B700E000F6
S11351F0130000003701B00013000000B3B1200217
S11352001302120093022000E31252FEB7AE000014
S1135210938E0EA0130E2001639AD11B130200007B
S1135220B700F00013000000130000003701B000C5
S1135230B3B120021302120093022000E31252FEC3
S1135240B7AE0000938E0E50130E30016390D11947
S1135250130200003701B000B700D000B3B1200240
S11352601302120093022000E31652FEB79E0000C0
S1135270938E0EF0130E4001639AD11513020000B1
S11352803701B000B700E00013000000B3B1200202
S11352901302120093022000E31452FEB7AE000082
S11352A0938E0EA0130E50016392D11313020000CB
S11352B03701B000B700F000130000001300000035
S11352C0B3B120021302120093022000E31252FE33
S11352D0B7AE0000938E0E50130E60016398D10F89
S11352E0130200003701B00013000000B700D00023
S11352F0B3B120021302120093022000E31452FE01
S1135300B79E0000938E0EF0130E70016390D10DC2
S1135310130200003701B00013000000B700E000E2
S113532013000000B3B12002130212009302200004
S1135330E31252FEB7AE0000938E0EA0130E80014E
S11353406396D109130200003701B0001300000076
S113535013000000B700F000B3B1200213021200E2
S113536093022000E31252FEB7AE0000938E0E505B
S1135370130E9001639CD105B700007C33311002F9
S1135380930E0000130EA0016312D105B700008034
S113539033B10002930E0000130EB0016318D10361
S11353A0B3300002930E0000130EC0016390D003CB
S11353B0B70010023701200233B02002930E000020
S11353C0130ED0016314D001631AC0033705001013
S11353D093055004130620059306F0041307A00058
S11353E02320B5002320C5002320C5002320D50099
S11353F02320C5002320E5007300100037050010AA
S11354009305F0041306B0049306A0002320B5000E
S11354102320C5002320D5006FB09F8C3755000092
S11354201305C5433706001083050500638A05008C
S11354302320B600130515006FF01FFF73726C0074
S11354409305E0022320B6002320B600B780FFFFB7
S113545013010000B3D12000B78EFFFF130E20000C
S11354606394D15BB780FFFF13011000B3D1200018
S1135470B7CEFF7F130E30006398D159B780FFFF7A
S113548013017000B3D12000B70E0002938E0EF00A
S1135490130E4000639AD157B780FFFF1301E00059
S11354A0B3D12000B70E0400938EEEFF130E50000C
S11354B0639CD155B780FFFF938010001301F00067
S11354C0B3D12000B70E0200938EFEFF130E6000CE
S11354D0639CD1539300F0FF13010000B3D120006B
S11354E0930EF0FF130E70006390D1539300F0FFFE
S11354F013011000B3D12000B70E0080938EFEFF7D
S1135500130E80006392D1519300F0FF13017000D9
S1135510B3D12000B70E0002938EFEFF130E90004D
S11355206394D14F9300F0FF1301E000B3D1200046
S1135530B70E0400938EFEFF130EA0006396D14DA8
S11355409300F0FF1301F001B3D12000930E10007B
S1135550130EB000639AD14BB7202121938010120F
S113556013010000B3D12000B72E2121938E1E1207
S1135570130EC000639AD149B720212193801012E1
S113558013011000B3D12000B79E9010938E0E0922
S1135590130ED000639AD147B720212193801012B3
S11355A013017000B3D12000B74E4200938E2E2415
S11355B0130EE000639AD145B72021219380101285
S11355C01301E000B3D12000B78E0000938E4E4843
S11355D0130EF000639AD143B72021219380101257
S11355E01301F001B3D12000930E0000130E00014B
S11355F0639CD141B720212193801012130100FE36
S1135600B3D12000B72E2121938E1E12130E100148
S1135610639CD13FB720212193801012130110FE07
S1135620B3D12000B79E9010938E0E09130E200163
S1135630639CD13DB720212193801012130170FE89
S1135640B3D12000B74E4200938E2E24130E3001A6
S1135650639CD13BB7202121938010121301E0FEFB
S1135660B3D12000B78E0000938E4E48130E400134
S1135670639CD139B7202121938010121301F0FFCC
S1135680B3D12000930E0000130E5001639ED13756
S1135690B780FFFF13011000B3D02000B7CEFF7F07
S11356A0130E60016392D037B780FFFF1301E0004F
S11356B033D12000B70E0400938EEEFF130E700159
S11356C06314D13593007000B3D01000930E000022
S11356D0130E8001639AD03313020000B780FFFFDA
S11356E013011000B3D12000138301001302120030
S11356F093022000E31452FEB7CEFF7F130E9001F5
S11357006314D33113020000B780FFFF1301E000DC
S1135710B3D1200013000000138301001302120010
S113572093022000E31252FEB70E0400938EEEFFA4
S1135730130EA001631AD32D13020000B780FFFFDC
S11357401301F000B3D12000130000001300000087
S1135750138301001302120093022000E31052FE8F
S1135760B70E0200938EFEFF130EB001631ED32901
S113577013020000B780FFFF13011000B3D1200013
S11357801302120093022000E31652FEB7CEFF7FED
S1135790130EC001639AD12713020000B780FFFFE4
S11357A01301700013000000B3D120001302120093
S11357B093022000E31452FEB70E0002938E0EF003
S11357C0130ED0016392D12513020000B780FFFFAE
S11357D01301F0001300000013000000B3D12000F7
S11357E01302120093022000E31252FEB70E0200CD
S11357F0938EFEFF130EE0016398D1211302000083
S1135800B780FFFF1300000013011000B3D1200084
S11358101302120093022000E31452FEB7CEFF7F5E
S1135820130EF0016392D11F13020000B780FFFF33
S1135830130000001301700013000000B3D1200016
S11358401302120093022000E31252FEB70E00026C
S1135850938E0EF0130E00026398D11B1302000006
S1135860B780FFFF13000000130000001301F000D5
S1135870B3D120001302120093022000E31252FE5F
S1135880B70E0200938EFEFF130E1002639ED11713
S11358901302000013011000B780FFFFB3D12000F2
S11358A01302120093022000E31652FEB7CEFF7FCC
S11358B0130E2002639AD115130200001301700025
S11358C0B780FFFF13000000B3D1200013021200C1
S11358D093022000E31452FEB70E0002938E0EF0E2
S11358E0130E30026392D113130200001301F0006F
S11358F0B780FFFF1300000013000000B3D12000A5
S11359001302120093022000E31252FEB70E0200AB
S1135910938EFEFF130E40026398D10F1302000012
S11359201301100013000000B780FFFFB3D1200063
S11359301302120093022000E31452FEB7CEFF7F3D
S1135940130E50026392D10D130200001301700074
S113595013000000B780FFFF13000000B3D1200044
S11359601302120093022000E31252FEB70E00024B
S1135970938E0EF0130E60026398D1091302000097
S11359801301F0001300000013000000B780FFFFB4
S1135990B3D120001302120093022000E31252FE3E
S11359A0B70E0200938EFEFF130E7002639ED105A4
S11359B09300F00033511000930E0000130E800288
S11359C06314D1059300000233D10000930E00024A
S11359D0130E9002631AD103B3500000930E00001B
S11359E0130EA0026392D00393000040371100000D
S11359F01301018033D02000930E0000130EB00277
S1135A006314D001631AC0033705001093055004D2
S1135A10130620059306F0041307A0002320B50005
S1135A202320C5002320C5002320D5002320C50042
S1135A302320E50073001000370500109305F004DF
S1135A401306B0049306A0002320B5002320C5004C
S1135A502320D5006FB04FA437650000130585A738
S1135A603706001083050500638A05002320B6006D
S1135A70130515006FF01FFF736C74009305E002AB
S1135A802320B6002320B600930000001301000079
S1135A90B3A12000930E0000130E2000639AD14B93
S1135AA09300100013011000B3A12000930E000016
S1135AB0130E3000639ED14993003000130170002F
S1135AC0B3A12000930E1000130E40006392D1493D
S1135AD09300700013013000B3A12000930E000066
S1135AE0130E50006396D147930000003781FFFFE7
S1135AF0B3A12000930E0000130E6000639AD145F9
S1135B00B700008013010000B3A12000930E100021
S1135B10130E7000639ED143B70000803781FFFFEE
S1135B20B3A12000930E1000130E80006392D143A2
S1135B3093000000378100001301F1FFB3A120009E
S1135B40930E1000130E90006394D141B7000080AF
S1135B509380F0FF13010000B3A12000930E000016
S1135B60130EA0006396D13FB70000809380F0FF2E
S1135B70378100001301F1FFB3A12000930E000050
S1135B80130EB0006396D13DB7000080378100004A
S1135B901301F1FFB3A12000930E1000130EC000F7
S1135BA06398D13BB70000809380F0FF3781FFFFFB
S1135BB0B3A12000930E0000130ED000639AD139D4
S1135BC0930000001301F0FFB3A12000930E000026
S1135BD0130EE000639ED1379300F0FF1301100011
S1135BE0B3A12000930E1000130EF0006392D1377E
S1135BF09300F0FF1301F0FFB3A12000930E000007
S1135C00130E00016396D1359300E0001301D00018
S1135C10B3A02000930E0000130E1001639AD0333A
S1135C209300B0001301D00033A12000930E1000A4
S1135C30130E2001631ED1319300D000B3A01000D5
S1135C40930E0000130E30016394D0311302000050
S1135C509300B0001301D000B3A12000138301000E
S1135C601302120093022000E31452FE930E10005C
S1135C70130E4001631ED32D130200009300E000B5
S1135C801301D000B3A1200013000000138301000E
S1135C901302120093022000E31252FE930E00003E
S1135CA0130E50016316D32B130200009300C0009F
S1135CB01301D000B3A12000130000001300000062
S1135CC0138301001302120093022000E31052FE1A
S1135CD0930E1000130E6001631CD32713020000FF
S1135CE09300E0001301D000B3A1200013021200BE
